{
  "contractName": "Crowd",
  "abi": [
    {
      "inputs": [],
      "payable": false,
      "stateMutability": "nonpayable",
      "type": "constructor"
    },
    {
      "constant": true,
      "inputs": [],
      "name": "needy",
      "outputs": [
        {
          "internalType": "address payable",
          "name": "",
          "type": "address"
        }
      ],
      "payable": false,
      "stateMutability": "view",
      "type": "function"
    },
    {
      "constant": true,
      "inputs": [],
      "name": "owner",
      "outputs": [
        {
          "internalType": "address",
          "name": "",
          "type": "address"
        }
      ],
      "payable": false,
      "stateMutability": "view",
      "type": "function"
    },
    {
      "constant": true,
      "inputs": [],
      "name": "total",
      "outputs": [
        {
          "internalType": "uint256",
          "name": "",
          "type": "uint256"
        }
      ],
      "payable": false,
      "stateMutability": "view",
      "type": "function"
    },
    {
      "constant": false,
      "inputs": [],
      "name": "donate",
      "outputs": [],
      "payable": true,
      "stateMutability": "payable",
      "type": "function"
    },
    {
      "constant": false,
      "inputs": [],
      "name": "registerNeedy",
      "outputs": [],
      "payable": false,
      "stateMutability": "nonpayable",
      "type": "function"
    },
    {
      "constant": false,
      "inputs": [],
      "name": "distribute",
      "outputs": [],
      "payable": false,
      "stateMutability": "nonpayable",
      "type": "function"
    }
  ],
  "bytecode": "0x608060405234801561001057600080fd5b506000808190555033600260006101000a81548173ffffffffffffffffffffffffffffffffffffffff021916908373ffffffffffffffffffffffffffffffffffffffff160217905550610352806100686000396000f3fe6080604052600436106100555760003560e01c806306779bd21461005a5780632ddbd13a146100715780638da5cb5b1461009c578063e4fc6b6d146100f3578063ed88c68e1461010a578063fd98605d14610114575b600080fd5b34801561006657600080fd5b5061006f61016b565b005b34801561007d57600080fd5b506100866101ae565b6040518082815260200191505060405180910390f35b3480156100a857600080fd5b506100b16101b4565b604051808273ffffffffffffffffffffffffffffffffffffffff1673ffffffffffffffffffffffffffffffffffffffff16815260200191505060405180910390f35b3480156100ff57600080fd5b506101086101da565b005b6101126102ea565b005b34801561012057600080fd5b506101296102f7565b604051808273ffffffffffffffffffffffffffffffffffffffff1673ffffffffffffffffffffffffffffffffffffffff16815260200191505060405180910390f35b33600160006101000a81548173ffffffffffffffffffffffffffffffffffffffff021916908373ffffffffffffffffffffffffffffffffffffffff160217905550565b60005481565b600260009054906101000a900473ffffffffffffffffffffffffffffffffffffffff1681565b600260009054906101000a900473ffffffffffffffffffffffffffffffffffffffff1673ffffffffffffffffffffffffffffffffffffffff163373ffffffffffffffffffffffffffffffffffffffff161461023457600080fd5b600160009054906101000a900473ffffffffffffffffffffffffffffffffffffffff1673ffffffffffffffffffffffffffffffffffffffff166108fc6000549081150290604051600060405180830381858888f1935050505015801561029e573d6000803e3d6000fd5b50600080819055506000600160006101000a81548173ffffffffffffffffffffffffffffffffffffffff021916908373ffffffffffffffffffffffffffffffffffffffff160217905550565b3460005401600081905550565b600160009054906101000a900473ffffffffffffffffffffffffffffffffffffffff168156fea265627a7a723158209ae709ebd50704eb0af7bb6607d194ea7f29112677696c9058329035785b1ad164736f6c63430005100032",
  "source": "// SPDX-License-Identifier: MIT\r\npragma solidity >=0.4.22 < 0.8.0;\r\n\r\ncontract Crowd {\r\n    uint256 public total;\r\n    address payable public needy;\r\n    address public owner;\r\n    constructor() public {\r\n        total=0;\r\n        owner=msg.sender;\r\n    }\r\n    modifier onlyOwner()  {\r\n         require(msg.sender==owner); \r\n         _;\r\n    }\r\n    function donate() public payable{\r\n           total=total+msg.value;\r\n    }\r\n    function registerNeedy() public {\r\n            needy=msg.sender;\r\n    }\r\n    function distribute() public onlyOwner {\r\n       \r\n        needy.transfer(total);\r\n        total=0;\r\n        needy=address(0);\r\n    }\r\n \r\n}",
  "sourcePath": "C:\\Users\\omind\\Desktop\\crowd\\contracts\\Crowd.sol",
  "compiler": {
    "name": "solc",
    "version": "0.5.16+commit.9c3226ce.Emscripten.clang"
  },
  "schemaVersion": "3.4.7",
  "updatedAt": "2022-06-18T14:22:03.166Z",
  "devdoc": {
    "methods": {}
  },
  "userdoc": {
    "methods": {}
  }
}